:020000040800F2
:10000000A0060020CD010008210400081904000802
:100010001D040008870200083D09000800000000D8
:10002000000000000000000000000000890500083A
:100030008B02000800000000490400087506000853
:10004000E7010008E7010008E7010008E7010008F0
:10005000E7010008E7010008E7010008E7010008E0
:10006000E7010008E7010008E7010008E7010008D0
:10007000E7010008E7010008E7010008E7010008C0
:10008000E7010008E7010008E7010008E7010008B0
:10009000E7010008E7010008E7010008E7010008A0
:1000A000E7010008E7010008E7010008E701000890
:1000B000E7010008E7010008E7010008E701000880
:1000C000E7010008E7010008E7010008E701000870
:1000D000E7010008E7010008E7010008E701000860
:1000E000E7010008E7010008E7010008E701000850
:1000F000E7010008E7010008E7010008E701000840
:10010000E7010008E7010008E7010008E70100082F
:10011000E7010008E7010008E7010008E70100081F
:10012000E7010008E7010008E7010008E70100080F
:1001300000F002F800F03AF80AA090E8000C8244BF
:100140008344AAF10107DA4501D100F02FF8AFF29C
:10015000090EBAE80F0013F0010F18BFFB1A43F0A5
:1001600001031847200B0000400B0000103A24BF89
:1001700078C878C1FAD8520724BF30C830C144BF0C
:1001800004680C607047000000230024002500264E
:10019000103A28BF78C1FBD8520728BF30C148BFEA
:1001A0000B6070471FB51FBD10B510BD00F031F8D2
:1001B0001146FFF7F7FF00F00BFC00F04FF803B417
:1001C000FFF7F2FF03BC00F057F800000948804732
:1001D00009480047FEE7FEE7FEE7FEE7FEE7FEE729
:1001E000FEE7FEE7FEE7FEE704480549054A064B41
:1001F000704700007906000831010008A0000020C7
:10020000A0060020A0020020A00200207047704736
:100210007047754600F02CF8AE4605006946534617
:1002200020F00700854618B020B5FFF7DDFFBDE8D8
:1002300020404FF000064FF000074FF000084FF04D
:10024000000B21F00701AC46ACE8C009ACE8C009DE
:10025000ACE8C009ACE8C0098D46704710B504464B
:10026000AFF300802046BDE81040FFF7A8BF0000B4
:10027000004870473C00002001491820ABBEFEE753
:1002800026000200704700BFFEE7704710B500214E
:100290004FF0804000F043FA00BF4FF0804000F084
:1002A0003BFAB0F57A7FF8DB10BD10B5044602E0EA
:1002B000FFF7ECFF641E002CFAD110BD10B5012130
:1002C000082000F0D3F814200549C8704FF480507E
:1002D000088003208870034800F006F810BD000075
:1002E00000000020000C01402DE9F04102460025ED
:1002F0000026002000230024002791F803C00CF002
:100300000F0591F803C00CF0100CBCF1000F03D0E6
:1003100091F802C04CEA050591F800C0BCF1000F4D
:1003200031D0146800202BE04FF0010C0CFA00F3E0
:10033000B1F800C00CEA03069E4220D183004FF0C2
:100340000F0C0CFA03F7BC4305FA03FC4CEA040457
:1003500091F803C0BCF1280F06D14FF0010C0CFA44
:1003600000FCC2F814C00AE091F803C0BCF1480FC9
:1003700005D14FF0010C0CFA00FCC2F810C0401C73
:100380000828D1D31460B1F800C0BCF1FF0F34DDF0
:10039000546800202EE000F1080C4FF0010808FA24
:1003A0000CF3B1F800C00CEA03069E4221D1830091
:1003B0004FF00F0C0CFA03F7BC4305FA03FC4CEAB0
:1003C000040491F803C0BCF1280F05D100F1080C1A
:1003D00008FA0CF8C2F8148091F803C0BCF1480F79
:1003E00007D100F1080C4FF0010808FA0CF8C2F828
:1003F0001080401C0828CED35460BDE8F08102462E
:10040000002093680B400BB1012000E000207047F2
:10041000416170470161704700BFFEE700BFFEE722
:10042000704710B500F0A0FA00F002FC00F0B2FB3B
:10043000002404E0204600F037FB601CC4B2052C09
:10044000F8DB00F07DFA10BD7047000029B1064AC4
:10045000D2690243044BDA6104E0034AD269824361
:10046000014BDA61704700000010024029B1064AD2
:1004700092690243044B9A6104E0034A9269824301
:10048000014B9A61704700000010024030B5002116
:100490000022002400232D4D6D6805F00C0121B1D0
:1004A000042905D0082923D105E0294D056022E063
:1004B000274D05601FE0254D6D6805F47012234D32
:1004C0006D6805F48034022505EB92421CB9214D7C
:1004D000554305600BE01D4D6D6805F400351DB1F9
:1004E0001C4D5543056002E0194D5543056002E07F
:1004F000174D056000BF00BF144D6D6805F0F00199
:100500000909154D6B5C0568DD4045600F4D6D6850
:1005100005F4E061090A104D6B5C4568DD408560BB
:100520000A4D6D6805F46051C90A0B4D6B5C456856
:10053000DD40C560054D6D6805F44041890B074DF0
:100540006B5CC568B5FBF3F5056130BD001002407A
:1005500000127A0000093D000C0000201C00002061
:1005600010B501210820FFF781FF04200449C8705D
:1005700040020880032088700248FFF7B5FE10BDD6
:1005800000000020000C0140704710B500F002F898
:1005900010BD00000CB500200190009033480068A9
:1005A00040F480303149086000BF3048006800F4F2
:1005B000003000900198401C0190009818B90198F3
:1005C000B0F5A06FF1D12948006800F4003010B1F7
:1005D0000120009001E0002000900098012843D104
:1005E0002348006840F01000214908600846006870
:1005F00020F0030008600846006840F00200086030
:100600001A484068194948600846406848600846EA
:10061000406840F4806048600846406820F47C10E0
:1006200048600846406840F4E810486008460068A2
:1006300040F08070086000BF0C48006800F0007057
:100640000028F9D00948406820F0030007494860B5
:100650000846406840F00200486000BF0348406818
:1006600000F00C000828F9D10CBD00000010024079
:10067000002002407047000010B51348006840F0A9
:1006800001001149086008464068104908400E49B9
:100690004860084600680E4908400B490860084653
:1006A000006820F4802008600846406820F4FE00BE
:1006B00048604FF41F008860FFF767FF4FF000604D
:1006C0000449086010BD0000001002400000FFF85F
:1006D000FFFFF6FE08ED00E021B1028842F00102C2
:1006E000028004E002884FF6FE731A4002807047D1
:1006F00010B501210846FFF7A9FE002005494880F2
:100700004FF6FF708880472008804FF0804000F04F
:1007100009F810BD300000200146888C70478184A4
:1007200070470000002202881D4B98420ED01D4BDE
:1007300098420BD0B0F1804F08D01B4B984205D0A7
:100740001A4B984202D01A4B984204D14FF68F733D
:100750001A404B881A43174B984207D0164B9842C1
:1007600004D04FF6FF431A40CB881A4302808B888F
:1007700083850B8803850A4B98420BD0094B98421E
:1007800008D00E4B984205D00D4B984202D00D4B2D
:10079000984201D10B7A03860123838270470000BF
:1007A000002C0140003401400004004000080040DB
:1007B000000C0040001000400014004000400140C8
:1007C000004401400048014010B501210820FFF716
:1007D0004DFE18200549C8704FF480600880032042
:1007E00088700348FFF780FD10BD00000000002066
:1007F000000C014021B1828942F40052828104E060
:1008000082894DF6FF731A408281704702460020AC
:10081000B1F5007F00D100BF13880B400BB1012060
:1008200000E00020704700002DE9F04786B0054643
:100830000E460024A24600BFA1460027B08900B1A1
:1008400000BF2F462C8A4CF6FF700440F08804430A
:100850002C82AC894EF6F3100440B08831890843ED
:10086000718908430443AC81AC8A4FF6FF400440D1
:10087000B0890443AC8201A8FFF708FE1F488742F5
:1008800002D1DDF810A001E0DDF80CA0A88900F489
:10089000004040B10AEBCA0000EB0A103168490081
:1008A000B0FBF1F807E00AEBCA0000EB0A10316870
:1008B0008900B0FBF1F86420B8FBF0F004012009D6
:1008C000642101FB1089A88900F4004040B1322066
:1008D00000EBC900B0FBF1F000F00700044308E0B2
:1008E000322000EB09106421B0FBF1F000F00F00A2
:1008F00004432C8106B0BDE8F087000000380140B9
:10090000C1F308028280704710B501218804FFF707
:100910009DFD4FF4165007490860002088810C2087
:10092000488100200881C88088800348FFF77CFF49
:1009300010BD0000200000200048004000BFFEE77E
:1009400008480078074949780844064989780844E6
:100950000449C978084403490979884201D000BF95
:10096000FEE770470600002010B54FF4805116488E
:10097000FFF74EFD1420FFF798FC4FF4805112480A
:10098000FFF748FD00214FF08040FFF7C8FE06E06A
:100990004FF480510C48FFF732FD00B105E04FF0F5
:1009A0008040FFF7B9FE0A28F2DB00BF4FF080401D
:1009B000FFF7B2FE05490880084600880A2801DBD7
:1009C00000BFFEE710BD0000000C01400400002045
:1009D000FFF774FCFFF78CFEFFF7F6FEFFF7C0FD94
:1009E000FFF792FF01218807FFF776FE01212B48D0
:1009F000FFF700FF4FF480512948FFF70BFD4CE053
:100A0000FFF70FFD4FF47A70FFF74FFCFE212348EC
:100A1000FFF776FF00BF80212048FFF7F7FE002890
:100A2000F9D03220FFF741FC1E4801781B48FFF740
:100A300067FF00BF80211948FFF7E8FE0028F9D0C2
:100A40003220FFF732FC174841781448FFF758FF6F
:100A500000BF80211148FFF7D9FE0028F9D03220CD
:100A6000FFF723FC0F4881780C48FFF749FF00BFD0
:100A700080210A48FFF7CAFE0028F9D03220FFF78C
:100A800014FC0848C1780548FFF73AFF00BF8021F1
:100A90000248FFF7BBFE0028F9D0B1E7004800404C
:100AA000000C01400600002010B504460020354926
:100AB000087062E000214FF08040FFF730FE06E052
:100AC0004FF480513048FFF79AFC00B105E04FF039
:100AD0008040FFF721FE4128F2DB00BF4FF080404D
:100AE000FFF71AFE2949088008460088412803DAE2
:100AF000084600882D2801DC00BFFEE700214FF0EA
:100B00008040FFF70CFE06E04FF480511E48FFF7CF
:100B100076FC00B905E04FF08040FFF7FDFD50285E
:100B2000F2DB00BF4FF08040FFF7F6FD1749088069
:100B300008460088502803DA084600880A2801DCA5
:100B400000BFFEE71248005D4006000E1049085540
:100B50000E4800882D2805DD0846005D40F00100A4
:100B6000085505E00A48005D20F0010008490855D5
:100B700004480078401C034908700248007808289F
:100B800098DB10BD0B000020000C01400400002089
:100B90000600002010B500214FF08040FFF7BFFD98
:100BA00006E04FF480512048FFF729FC00B105E032
:100BB0004FF08040FFF7B0FD5A28F2DB00BF4FF046
:100BC0008040FFF7A9FD19490880084600885A2887
:100BD00003DA08460088462801DC00BFFEE7002152
:100BE0004FF08040FFF79BFD06E04FF480510E4828
:100BF000FFF705FC00B905E04FF08040FFF78CFDE2
:100C00005F28F2DB00BF4FF08040FFF785FD07490A
:100C10000880084600885F2803DA084600884B28C9
:100C200001DC00BFFEE710BD000C01400400002005
:100C300010B500214FF08040FFF771FD06E04FF442
:100C400080510E48FFF7DBFB00B905E04FF0804014
:100C5000FFF762FD2D28F2DB00BF4FF08040FFF769
:100C60005BFD07490880084600882D2803DA0846FE
:100C70000088052801DC00BFFEE710BD000C014024
:100C800004000020A40C0008000000202000000048
:100C90006C010008C40C0008200000208006000041
:100CA00088010008000000000000000000000000B3
:100CB0000000000001020304010203040607080902
:040CC000020406081C
:0400000508000131BD
:00000001FF
